:1000000045C0000060C000005EC000005CC0000091
:100010005AC0000058C0000056C0000054C0000084
:1000200052C0000050C000004EC000004CC0000094
:100030004AC0000048C0000046C0000044C00000A4
:1000400042C0000040C000003EC000003CC00000B4
:100050003AC0000038C0000036C0000034C00000C4
:1000600032C0000030C000002EC000002CC00000D4
:100070002AC0000028C0000026C0000024C00000E4
:1000800022C0000020C000001EC0000011241FBEBE
:10009000CFEFD0E1DEBFCDBF11E0A0E0B1E0E8EAF4
:1000A000F2E000E00BBF02C007900D92AE30B10746
:1000B000D9F721E0AEE0B1E001C01D92A031B20756
:1000C000E1F727D0EFC09CCF80910E01811106C0CF
:1000D00082B18F7082B983B1806F83B980910E0134
:1000E0008F5F80930E01089581B1809582958F7006
:1000F000089580910F01811102C08FEF8ABB80911A
:100100000F018F5F80930F01089589B308956BBB32
:100110000895CF93DF93CDB7DEB7AA970FB6F894C3
:10012000DEBF0FBECDBFCE018A96CEDFCE0189964F
:10013000E0DFCE010B969E012F5F3F4F3E0149E26B
:10014000640E711CF9016CE071E0DC0118971C92DF
:1001500011961C928F01021B130B45E050E04C0FCF
:100160005D1F400F511FDA011C9212961C921E92C5
:10017000119771836083A8E0B0E0AC0FBD1FA00FA2
:10018000B11F1C9211961C92119712961C920A96FE
:100190003A96E615F705C9F6412C512C33243394D1
:1001A0008E010F5F1F4F0F2EF4E0AF2EF1E0BF2E38
:1001B000F02D0F2EF0E0EF2EF1E0FF2EF02D680174
:1001C000D801ED91FC9180809180CE018A968CDFE0
:1001D000F50191915F018923632D09F460E0C60167
:1001E000F4010995D60112968C91882351F0CE0125
:1001F00089968BDFF7016081682BCE01899687DFB6
:100200000AC0CE01899681DFD7016C916095682381
:10021000CE0189967CDF065F1F4FBFEFEB1AFB0A0A
:100220000615170561F64114510469F4CE0189964B
:100230006CDF60E8680FCE01899669DF412C689415
:10024000552456F8ADCFE1E04E1A5108A9CFFC0174
:100250008381861731F0662321F0928181E089271E
:10026000828363830895FC01662349F082818F5F56
:100270008283813458F0118281E0808308958181E6
:100280008F5F8183813410F0128210820895CF93A2
:10029000DF93EC010796E7DF6F81CE01D8DFDF91B6
:0802A000CF910895F894FFCFFF
:0E02A8000102040801020408000000004701E2
:00000001FF
