:1000000045C0000060C000005EC000005CC0000091
:100010005AC0000058C0000056C0000054C0000084
:1000200052C0000050C000004EC000004CC0000094
:100030004AC0000048C0000046C0000044C00000A4
:1000400042C0000040C000003EC000003CC00000B4
:100050003AC0000038C0000036C0000034C00000C4
:1000600032C0000030C000002EC000002CC00000D4
:100070002AC0000028C0000026C0000024C00000E4
:1000800022C0000020C000001EC0000011241FBEBE
:10009000CFEFD0E1DEBFCDBF11E0A0E0B1E0E4EAF8
:1000A000F2E000E00BBF02C007900D92AE30B10746
:1000B000D9F721E0AEE0B1E001C01D92A031B20756
:1000C000E1F727D0EDC09CCF80910E01811106C0D1
:1000D00082B18F7082B983B1806F83B980910E0134
:1000E0008F5F80930E01089581B1809582958F7006
:1000F000089580910F01811102C08FEF8ABB80911A
:100100000F018F5F80930F01089589B308956BBB32
:100110000895CF93DF93CDB7DEB7A6970FB6F894C7
:10012000DEBF0FBECDBFCE018696CEDFCE01859657
:10013000E0DFCE010A969E012F5F3F4F3E0145E270
:10014000640E711CF9016CE071E0DC0117971C92E0
:1001500011961C928F01021B130B45E050E04C0FCF
:100160005D1F400F511FDA011C9211961C92718382
:100170006083A7E0B0E0AC0FBD1FA00FB11F1C92C1
:1001800011961C92119712961C9209963996E615B3
:10019000F705D9F6412C512C332433948E010F5F8F
:1001A0001F4F0F2EF4E0AF2EF1E0BF2EF02D0F2EDB
:1001B000F0E0EF2EF1E0FF2EF02D6801D801ED9177
:1001C000FC9180809180CE0186968EDFF501919121
:1001D0005F018923632D09F460E0C601F4010995EC
:1001E000D60112968C91882351F0CE0185968DDF31
:1001F000F7016081682BCE01859689DF0AC0CE01A8
:10020000859683DFD7016C9160956823CE01859632
:100210007EDF075F1F4FBFEFEB1AFB0A06151705BE
:1002200061F64114510469F4CE0185966EDF60E8F1
:10023000680FCE0185966BDF412C6894552456F8E3
:10024000ADCFE1E04E1A5108A9CFFC01838186179A
:1002500031F0662321F0928181E0892782836383D4
:100260000895FC01662349F082818F5F8283853087
:1002700058F0118281E08083089581818F5F8183AE
:10028000853010F0128210820895CF93DF93EC0135
:100290000696E7DF6E81CE01D8DFDF91CF9108951A
:0402A000F894FFCF00
:0E02A4000102040801020408000000004501E8
:00000001FF
